{
  "_format": "hh3-artifact-1",
  "contractName": "Certificate",
  "sourceName": "contracts/Certificate.sol",
  "abi": [
    {
      "inputs": [],
      "stateMutability": "nonpayable",
      "type": "constructor"
    },
    {
      "inputs": [],
      "name": "AccessControlBadConfirmation",
      "type": "error"
    },
    {
      "inputs": [
        {
          "internalType": "address",
          "name": "account",
          "type": "address"
        },
        {
          "internalType": "bytes32",
          "name": "neededRole",
          "type": "bytes32"
        }
      ],
      "name": "AccessControlUnauthorizedAccount",
      "type": "error"
    },
    {
      "anonymous": false,
      "inputs": [
        {
          "indexed": false,
          "internalType": "string",
          "name": "id",
          "type": "string"
        },
        {
          "indexed": false,
          "internalType": "string",
          "name": "studentName",
          "type": "string"
        },
        {
          "indexed": false,
          "internalType": "string",
          "name": "matricNumber",
          "type": "string"
        },
        {
          "indexed": false,
          "internalType": "string",
          "name": "degree",
          "type": "string"
        },
        {
          "indexed": false,
          "internalType": "string",
          "name": "ipfsHash",
          "type": "string"
        },
        {
          "indexed": false,
          "internalType": "string",
          "name": "institution",
          "type": "string"
        },
        {
          "indexed": true,
          "internalType": "address",
          "name": "issuer",
          "type": "address"
        }
      ],
      "name": "CertificateIssued",
      "type": "event"
    },
    {
      "anonymous": false,
      "inputs": [
        {
          "indexed": true,
          "internalType": "bytes32",
          "name": "role",
          "type": "bytes32"
        },
        {
          "indexed": true,
          "internalType": "bytes32",
          "name": "previousAdminRole",
          "type": "bytes32"
        },
        {
          "indexed": true,
          "internalType": "bytes32",
          "name": "newAdminRole",
          "type": "bytes32"
        }
      ],
      "name": "RoleAdminChanged",
      "type": "event"
    },
    {
      "anonymous": false,
      "inputs": [
        {
          "indexed": true,
          "internalType": "bytes32",
          "name": "role",
          "type": "bytes32"
        },
        {
          "indexed": true,
          "internalType": "address",
          "name": "account",
          "type": "address"
        },
        {
          "indexed": true,
          "internalType": "address",
          "name": "sender",
          "type": "address"
        }
      ],
      "name": "RoleGranted",
      "type": "event"
    },
    {
      "anonymous": false,
      "inputs": [
        {
          "indexed": true,
          "internalType": "bytes32",
          "name": "role",
          "type": "bytes32"
        },
        {
          "indexed": true,
          "internalType": "address",
          "name": "account",
          "type": "address"
        },
        {
          "indexed": true,
          "internalType": "address",
          "name": "sender",
          "type": "address"
        }
      ],
      "name": "RoleRevoked",
      "type": "event"
    },
    {
      "inputs": [],
      "name": "DEFAULT_ADMIN_ROLE",
      "outputs": [
        {
          "internalType": "bytes32",
          "name": "",
          "type": "bytes32"
        }
      ],
      "stateMutability": "view",
      "type": "function"
    },
    {
      "inputs": [],
      "name": "ISSUER_ROLE",
      "outputs": [
        {
          "internalType": "bytes32",
          "name": "",
          "type": "bytes32"
        }
      ],
      "stateMutability": "view",
      "type": "function"
    },
    {
      "inputs": [
        {
          "internalType": "bytes32",
          "name": "role",
          "type": "bytes32"
        }
      ],
      "name": "getRoleAdmin",
      "outputs": [
        {
          "internalType": "bytes32",
          "name": "",
          "type": "bytes32"
        }
      ],
      "stateMutability": "view",
      "type": "function"
    },
    {
      "inputs": [
        {
          "internalType": "bytes32",
          "name": "role",
          "type": "bytes32"
        },
        {
          "internalType": "address",
          "name": "account",
          "type": "address"
        }
      ],
      "name": "grantRole",
      "outputs": [],
      "stateMutability": "nonpayable",
      "type": "function"
    },
    {
      "inputs": [
        {
          "internalType": "bytes32",
          "name": "role",
          "type": "bytes32"
        },
        {
          "internalType": "address",
          "name": "account",
          "type": "address"
        }
      ],
      "name": "hasRole",
      "outputs": [
        {
          "internalType": "bool",
          "name": "",
          "type": "bool"
        }
      ],
      "stateMutability": "view",
      "type": "function"
    },
    {
      "inputs": [
        {
          "internalType": "string",
          "name": "_id",
          "type": "string"
        },
        {
          "internalType": "string",
          "name": "_studentName",
          "type": "string"
        },
        {
          "internalType": "string",
          "name": "_matricNumber",
          "type": "string"
        },
        {
          "internalType": "string",
          "name": "_degree",
          "type": "string"
        },
        {
          "internalType": "string",
          "name": "_ipfsHash",
          "type": "string"
        },
        {
          "internalType": "string",
          "name": "_institution",
          "type": "string"
        }
      ],
      "name": "issueCertificate",
      "outputs": [],
      "stateMutability": "nonpayable",
      "type": "function"
    },
    {
      "inputs": [
        {
          "internalType": "bytes32",
          "name": "role",
          "type": "bytes32"
        },
        {
          "internalType": "address",
          "name": "callerConfirmation",
          "type": "address"
        }
      ],
      "name": "renounceRole",
      "outputs": [],
      "stateMutability": "nonpayable",
      "type": "function"
    },
    {
      "inputs": [
        {
          "internalType": "bytes32",
          "name": "role",
          "type": "bytes32"
        },
        {
          "internalType": "address",
          "name": "account",
          "type": "address"
        }
      ],
      "name": "revokeRole",
      "outputs": [],
      "stateMutability": "nonpayable",
      "type": "function"
    },
    {
      "inputs": [
        {
          "internalType": "bytes4",
          "name": "interfaceId",
          "type": "bytes4"
        }
      ],
      "name": "supportsInterface",
      "outputs": [
        {
          "internalType": "bool",
          "name": "",
          "type": "bool"
        }
      ],
      "stateMutability": "view",
      "type": "function"
    },
    {
      "inputs": [
        {
          "internalType": "string",
          "name": "_id",
          "type": "string"
        }
      ],
      "name": "verifyCertificate",
      "outputs": [
        {
          "internalType": "string",
          "name": "studentName",
          "type": "string"
        },
        {
          "internalType": "string",
          "name": "matricNumber",
          "type": "string"
        },
        {
          "internalType": "string",
          "name": "degree",
          "type": "string"
        },
        {
          "internalType": "string",
          "name": "ipfsHash",
          "type": "string"
        },
        {
          "internalType": "string",
          "name": "institution",
          "type": "string"
        },
        {
          "internalType": "address",
          "name": "issuer",
          "type": "address"
        }
      ],
      "stateMutability": "view",
      "type": "function"
    }
  ],
  "bytecode": "0x608060405234801561000f575f5ffd5b506100225f5f1b3361002860201b60201c565b50610187565b5f610039838361011d60201b60201c565b6101135760015f5f8581526020019081526020015f205f015f8473ffffffffffffffffffffffffffffffffffffffff1673ffffffffffffffffffffffffffffffffffffffff1681526020019081526020015f205f6101000a81548160ff0219169083151502179055506100b061018060201b60201c565b73ffffffffffffffffffffffffffffffffffffffff168273ffffffffffffffffffffffffffffffffffffffff16847f2f8788117e7eff1d82e926ec794901d17c78024a50270940304540a733656f0d60405160405180910390a460019050610117565b5f90505b92915050565b5f5f5f8481526020019081526020015f205f015f8373ffffffffffffffffffffffffffffffffffffffff1673ffffffffffffffffffffffffffffffffffffffff1681526020019081526020015f205f9054906101000a900460ff16905092915050565b5f33905090565b6116dc806101945f395ff3fe608060405234801561000f575f5ffd5b506004361061009c575f3560e01c80638b23d875116100645780638b23d8751461015657806391d148541461018b57806394973c97146101bb578063a217fddf146101d7578063d547741f146101f55761009c565b806301ffc9a7146100a0578063248a9ca3146100d05780632f2ff15d1461010057806336568abe1461011c57806382aefa2414610138575b5f5ffd5b6100ba60048036038101906100b59190610ce0565b610211565b6040516100c79190610d25565b60405180910390f35b6100ea60048036038101906100e59190610d71565b61028a565b6040516100f79190610dab565b60405180910390f35b61011a60048036038101906101159190610e1e565b6102a6565b005b61013660048036038101906101319190610e1e565b6102c8565b005b610140610343565b60405161014d9190610dab565b60405180910390f35b610170600480360381019061016b9190610f98565b610367565b6040516101829695949392919061104e565b60405180910390f35b6101a560048036038101906101a09190610e1e565b610739565b6040516101b29190610d25565b60405180910390f35b6101d560048036038101906101d091906110d0565b61079c565b005b6101df6109ab565b6040516101ec9190610dab565b60405180910390f35b61020f600480360381019061020a9190610e1e565b6109b1565b005b5f7f7965db0b000000000000000000000000000000000000000000000000000000007bffffffffffffffffffffffffffffffffffffffffffffffffffffffff1916827bffffffffffffffffffffffffffffffffffffffffffffffffffffffff191614806102835750610282826109d3565b5b9050919050565b5f5f5f8381526020019081526020015f20600101549050919050565b6102af8261028a565b6102b881610a3c565b6102c28383610a50565b50505050565b6102d0610b39565b73ffffffffffffffffffffffffffffffffffffffff168173ffffffffffffffffffffffffffffffffffffffff1614610334576040517f6697b23200000000000000000000000000000000000000000000000000000000815260040160405180910390fd5b61033e8282610b40565b505050565b7f114e74f6ea3bd819998f78687bfcb11b140da08e9b7d222fa9c1f1ba1f2aa12281565b60608060608060605f5f600188604051610381919061123b565b90815260200160405180910390206040518060c00160405290815f820180546103a99061127e565b80601f01602080910402602001604051908101604052809291908181526020018280546103d59061127e565b80156104205780601f106103f757610100808354040283529160200191610420565b820191905f5260205f20905b81548152906001019060200180831161040357829003601f168201915b505050505081526020016001820180546104399061127e565b80601f01602080910402602001604051908101604052809291908181526020018280546104659061127e565b80156104b05780601f10610487576101008083540402835291602001916104b0565b820191905f5260205f20905b81548152906001019060200180831161049357829003601f168201915b505050505081526020016002820180546104c99061127e565b80601f01602080910402602001604051908101604052809291908181526020018280546104f59061127e565b80156105405780601f1061051757610100808354040283529160200191610540565b820191905f5260205f20905b81548152906001019060200180831161052357829003601f168201915b505050505081526020016003820180546105599061127e565b80601f01602080910402602001604051908101604052809291908181526020018280546105859061127e565b80156105d05780601f106105a7576101008083540402835291602001916105d0565b820191905f5260205f20905b8154815290600101906020018083116105b357829003601f168201915b505050505081526020016004820180546105e99061127e565b80601f01602080910402602001604051908101604052809291908181526020018280546106159061127e565b80156106605780601f1061063757610100808354040283529160200191610660565b820191905f5260205f20905b81548152906001019060200180831161064357829003601f168201915b50505050508152602001600582015f9054906101000a900473ffffffffffffffffffffffffffffffffffffffff1673ffffffffffffffffffffffffffffffffffffffff1673ffffffffffffffffffffffffffffffffffffffff168152505090505f815f01515103610706576040517f08c379a00000000000000000000000000000000000000000000000000000000081526004016106fd906112f8565b60405180910390fd5b805f015181602001518260400151836060015184608001518560a001519650965096509650965096505091939550919395565b5f5f5f8481526020019081526020015f205f015f8373ffffffffffffffffffffffffffffffffffffffff1673ffffffffffffffffffffffffffffffffffffffff1681526020019081526020015f205f9054906101000a900460ff16905092915050565b7f114e74f6ea3bd819998f78687bfcb11b140da08e9b7d222fa9c1f1ba1f2aa1226107c681610a3c565b5f6001886040516107d7919061123b565b90815260200160405180910390205f0180546107f29061127e565b905014610834576040517f08c379a000000000000000000000000000000000000000000000000000000000815260040161082b90611360565b60405180910390fd5b6040518060c001604052808781526020018681526020018581526020018481526020018381526020013373ffffffffffffffffffffffffffffffffffffffff16815250600188604051610887919061123b565b90815260200160405180910390205f820151815f0190816108a89190611527565b5060208201518160010190816108be9190611527565b5060408201518160020190816108d49190611527565b5060608201518160030190816108ea9190611527565b5060808201518160040190816109009190611527565b5060a0820151816005015f6101000a81548173ffffffffffffffffffffffffffffffffffffffff021916908373ffffffffffffffffffffffffffffffffffffffff1602179055509050503373ffffffffffffffffffffffffffffffffffffffff167fefb2417fd2c139b0603578daa0fe2b6d65a542eea4d0970b71d6955989697d5588888888888860405161099a969594939291906115f6565b60405180910390a250505050505050565b5f5f1b81565b6109ba8261028a565b6109c381610a3c565b6109cd8383610b40565b50505050565b5f7f01ffc9a7000000000000000000000000000000000000000000000000000000007bffffffffffffffffffffffffffffffffffffffffffffffffffffffff1916827bffffffffffffffffffffffffffffffffffffffffffffffffffffffff1916149050919050565b610a4d81610a48610b39565b610c29565b50565b5f610a5b8383610739565b610b2f5760015f5f8581526020019081526020015f205f015f8473ffffffffffffffffffffffffffffffffffffffff1673ffffffffffffffffffffffffffffffffffffffff1681526020019081526020015f205f6101000a81548160ff021916908315150217905550610acc610b39565b73ffffffffffffffffffffffffffffffffffffffff168273ffffffffffffffffffffffffffffffffffffffff16847f2f8788117e7eff1d82e926ec794901d17c78024a50270940304540a733656f0d60405160405180910390a460019050610b33565b5f90505b92915050565b5f33905090565b5f610b4b8383610739565b15610c1f575f5f5f8581526020019081526020015f205f015f8473ffffffffffffffffffffffffffffffffffffffff1673ffffffffffffffffffffffffffffffffffffffff1681526020019081526020015f205f6101000a81548160ff021916908315150217905550610bbc610b39565b73ffffffffffffffffffffffffffffffffffffffff168273ffffffffffffffffffffffffffffffffffffffff16847ff6391f5c32d9c69d2a47ea670b442974b53935d1edc7fd64eb21e047a839171b60405160405180910390a460019050610c23565b5f90505b92915050565b610c338282610739565b610c765780826040517fe2517d3f000000000000000000000000000000000000000000000000000000008152600401610c6d92919061167f565b60405180910390fd5b5050565b5f604051905090565b5f5ffd5b5f5ffd5b5f7fffffffff0000000000000000000000000000000000000000000000000000000082169050919050565b610cbf81610c8b565b8114610cc9575f5ffd5b50565b5f81359050610cda81610cb6565b92915050565b5f60208284031215610cf557610cf4610c83565b5b5f610d0284828501610ccc565b91505092915050565b5f8115159050919050565b610d1f81610d0b565b82525050565b5f602082019050610d385f830184610d16565b92915050565b5f819050919050565b610d5081610d3e565b8114610d5a575f5ffd5b50565b5f81359050610d6b81610d47565b92915050565b5f60208284031215610d8657610d85610c83565b5b5f610d9384828501610d5d565b91505092915050565b610da581610d3e565b82525050565b5f602082019050610dbe5f830184610d9c565b92915050565b5f73ffffffffffffffffffffffffffffffffffffffff82169050919050565b5f610ded82610dc4565b9050919050565b610dfd81610de3565b8114610e07575f5ffd5b50565b5f81359050610e1881610df4565b92915050565b5f5f60408385031215610e3457610e33610c83565b5b5f610e4185828601610d5d565b9250506020610e5285828601610e0a565b9150509250929050565b5f5ffd5b5f5ffd5b5f601f19601f8301169050919050565b7f4e487b71000000000000000000000000000000000000000000000000000000005f52604160045260245ffd5b610eaa82610e64565b810181811067ffffffffffffffff82111715610ec957610ec8610e74565b5b80604052505050565b5f610edb610c7a565b9050610ee78282610ea1565b919050565b5f67ffffffffffffffff821115610f0657610f05610e74565b5b610f0f82610e64565b9050602081019050919050565b828183375f83830152505050565b5f610f3c610f3784610eec565b610ed2565b905082815260208101848484011115610f5857610f57610e60565b5b610f63848285610f1c565b509392505050565b5f82601f830112610f7f57610f7e610e5c565b5b8135610f8f848260208601610f2a565b91505092915050565b5f60208284031215610fad57610fac610c83565b5b5f82013567ffffffffffffffff811115610fca57610fc9610c87565b5b610fd684828501610f6b565b91505092915050565b5f81519050919050565b5f82825260208201905092915050565b8281835e5f83830152505050565b5f61101182610fdf565b61101b8185610fe9565b935061102b818560208601610ff9565b61103481610e64565b840191505092915050565b61104881610de3565b82525050565b5f60c0820190508181035f8301526110668189611007565b9050818103602083015261107a8188611007565b9050818103604083015261108e8187611007565b905081810360608301526110a28186611007565b905081810360808301526110b68185611007565b90506110c560a083018461103f565b979650505050505050565b5f5f5f5f5f5f60c087890312156110ea576110e9610c83565b5b5f87013567ffffffffffffffff81111561110757611106610c87565b5b61111389828a01610f6b565b965050602087013567ffffffffffffffff81111561113457611133610c87565b5b61114089828a01610f6b565b955050604087013567ffffffffffffffff81111561116157611160610c87565b5b61116d89828a01610f6b565b945050606087013567ffffffffffffffff81111561118e5761118d610c87565b5b61119a89828a01610f6b565b935050608087013567ffffffffffffffff8111156111bb576111ba610c87565b5b6111c789828a01610f6b565b92505060a087013567ffffffffffffffff8111156111e8576111e7610c87565b5b6111f489828a01610f6b565b9150509295509295509295565b5f81905092915050565b5f61121582610fdf565b61121f8185611201565b935061122f818560208601610ff9565b80840191505092915050565b5f611246828461120b565b915081905092915050565b7f4e487b71000000000000000000000000000000000000000000000000000000005f52602260045260245ffd5b5f600282049050600182168061129557607f821691505b6020821081036112a8576112a7611251565b5b50919050565b7f4365727469666963617465206e6f7420666f756e6400000000000000000000005f82015250565b5f6112e2601583610fe9565b91506112ed826112ae565b602082019050919050565b5f6020820190508181035f83015261130f816112d6565b9050919050565b7f436572746966696361746520494420616c7265616479206578697374730000005f82015250565b5f61134a601d83610fe9565b915061135582611316565b602082019050919050565b5f6020820190508181035f8301526113778161133e565b9050919050565b5f819050815f5260205f209050919050565b5f6020601f8301049050919050565b5f82821b905092915050565b5f600883026113da7fffffffffffffffffffffffffffffffffffffffffffffffffffffffffffffffff8261139f565b6113e4868361139f565b95508019841693508086168417925050509392505050565b5f819050919050565b5f819050919050565b5f61142861142361141e846113fc565b611405565b6113fc565b9050919050565b5f819050919050565b6114418361140e565b61145561144d8261142f565b8484546113ab565b825550505050565b5f5f905090565b61146c61145d565b611477818484611438565b505050565b5b8181101561149a5761148f5f82611464565b60018101905061147d565b5050565b601f8211156114df576114b08161137e565b6114b984611390565b810160208510156114c8578190505b6114dc6114d485611390565b83018261147c565b50505b505050565b5f82821c905092915050565b5f6114ff5f19846008026114e4565b1980831691505092915050565b5f61151783836114f0565b9150826002028217905092915050565b61153082610fdf565b67ffffffffffffffff81111561154957611548610e74565b5b611553825461127e565b61155e82828561149e565b5f60209050601f83116001811461158f575f841561157d578287015190505b611587858261150c565b8655506115ee565b601f19841661159d8661137e565b5f5b828110156115c45784890151825560018201915060208501945060208101905061159f565b868310156115e157848901516115dd601f8916826114f0565b8355505b6001600288020188555050505b505050505050565b5f60c0820190508181035f83015261160e8189611007565b905081810360208301526116228188611007565b905081810360408301526116368187611007565b9050818103606083015261164a8186611007565b9050818103608083015261165e8185611007565b905081810360a08301526116728184611007565b9050979650505050505050565b5f6040820190506116925f83018561103f565b61169f6020830184610d9c565b939250505056fea264697066735822122061a5a84fb9190a74b51de6aa8abc0fcdb56f131a499369b965e0e93d9c56feb664736f6c634300081c0033",
  "linkReferences": {},
  "deployedLinkReferences": {},
  "immutableReferences": {},
  "inputSourceName": "project/contracts/Certificate.sol",
  "buildInfoId": "solc-0_8_28-dd73165f24fb6ec6716c1f691eaca908d30c8cab"
}